:03000000020100FA
:100100003191E5905407FAFBAA03C294C295C296B6
:10011000C2970A3139DAFCAA037409C39AFAEA2AA7
:10012000D4FFEA4430FDD294D295D296D29774028D
:1001300031390404DAFA0201567E083142DEFC024B
:100140000155758901758C3C758AB0D28C308DFD56
:10015000C28CC28D2222748231CE31FC90030031D8
:10016000EE31FCED31DD743031DD31FC74C031CE67
:1001700031FC90030D31EE31FCEFC4540F243031CB
:10018000DDEF540F243031DD743031DD31DD02011B
:100190000275A038C280C281D28231FCC28231FC99
:1001A00075A00CC280C281D28231FCC28231FC7542
:1001B000A001C280C281D28231FCC28231FC75A012
:1001C00006C280C281D28231FCC28231FC22F5A0FB
:1001D000C280C281D28231FCC28231FC22F5A0D21F
:1001E00080C281D28231FCC28231FC31FC22C0E06B
:1001F000E493600531DDA380F7D0E022C000C001A8
:0D02000078017937D9FED8FAD001D000225C
:1003000044757479206379636C653A200050756C8C
:0A03100073652077696474683A0091
:00000001FF
