:03000000020100FA
:03000B00020050A0
:020050000D326F
:10010000D2AFD2A9A290500302010031DDC294C245
:1001100095C296C2977480511A5148900318513A6B
:10012000514874C0511A5148900324513A514831F2
:10013000C031C031DDD294C3318CC2947482511A63
:100140005148900300513A514874C0511A51489097
:10015000030E513AEDC431B05129ED31B05129743B
:10016000205129E58CC431B05129E58C31B0512999
:10017000E58AC431B05129E58A31B0512931C03105
:10018000C031C031C031C031DD0201003193401FA8
:1001900002018C758901758C00758A00D28C3090B3
:1001A00006C28CC28DD322308DF4C28CC28D222225
:1001B000540F75F00A84C5F030F002243124302247
:1001C0007E2831C9DEFC0201DC758901758C3C7525
:1001D0008AB0D28C308DFDC28CC28D222275A0389F
:1001E000C280C281D2825148C282514875A00CC2DD
:1001F00080C281D2825148C282514875A001C2801A
:10020000C281D2825148C282514875A006C280C2C2
:1002100081D2825148C282514822F5A0C280C28157
:10022000D2825148C282514822F5A0D280C281D2E6
:01023000824B
:100231005148C2825148514822C0E0E493600551BF
:1002410029A380F7D0E022C000C0017801799BD9B1
:08025100FED8FAD001D0002212
:100300005265616374696F6E2054696D6500436F57
:10031000756E74206973200020546F67676C6520C8
:10032000535731006966204C454420676C6F7773E2
:0103300000CC
:00000001FF
