:03000000020C35BA
:0C0C3500787FE4F6D8FD758150020C7C3D
:100DA600496E76616C696420696E7075740D0A000F
:100DB600496E76616C696420696E707574002A2AC2
:100DC6002A2A2A2A2A2A2A2A2A2A2A2A2A2A2A2A7D
:100DD6002A2A2A2A2A2A0D0A0007D001F400C80066
:100DE600640014001E000A000A0000000000000053
:030DF600000000FA
:040F6200C101C10008
:100DF900E4F5A0C282C280C2817F38FE120ED512EC
:100E09000EA87F067E00120ED5120EA87F0C7E005A
:100E1900120ED5120EA87F017E00120ED5120EA851
:070E29007F807E00020ED560
:040EA8007F047E0045
:100EAC00E4FDFCC3ED9FEC9E5015E4FBFA0BBB007C
:0F0EBC00010ABA01F8BB7EF50DBD00010C80E400
:010ECB002204
:100B8F008E088F098B0A8A0B890C7C277D1012091E
:100B9F0043EF243012090FAE08AF097C277D1012E6
:100BAF0009437E037FE8CFCDCFCECCCE120943EFE2
:100BBF002430AB0AAA0BA90C900001120921AE0830
:100BCF00AF097C037DE81209437E007F64CFCDCF50
:100BDF00CECCCE120943EF2430AB0AAA0BA90C904E
:100BEF000002120921AE08AF097C007D641209438F
:100BFF007E007F0ACFCDCFCECCCE120943EF24306B
:100C0F00AB0AAA0BA90C900003120921AE08AF0979
:100C1F007C007D0A120943ED2430AB0AAA0BA90C04
:060C2F00900004020921FF
:090ECC007F01120ED57F807E002B
:100ED500C280C281D2828FA07F0A7E00120EACC270
:020EE500822267
:100F0F00D280C281D2828FA07F0A7E00120EACC225
:020F1F0082222C
:100E5E008B348A358936AB34AA35A9361208F6603A
:100E6E00130536E5367002053514F91208F6FF1231
:050E7E000F0F80E222CD
:100F2100758920758DF3759850D28ED2ACD2AF22CF
:080F5A008F993001FDC2012254
:100E83008B348A358936AB34AA35A9361208F66015
:100E9300130536E5367002053514F91208F6FF120C
:050EA3000F5A80E2225D
:090F5000E4FF3000FDC200AF997E
:010F59002275
:03002300020F3198
:100F3100309905C299D20132309804C298D2003258
:100E30007BFF7A0D79A6120E837F017E00120ED5FC
:100E40007FC07E00120ED57BFF7A0D79B6120E5E42
:0E0E50007FD07E07120EAC7F017E00020ED511
:100D4A00120AE18E3A8F3B78447C007D007BFF7A61
:100D5A000D79DF7E007F081208D0E4FBFAEB25E06C
:100D6A002444F8E6FC08E6FDAE3AAF3B120998EBDC
:100D7A0025E0243CF8A60608A607AE3AAF3BEB25C9
:100D8A00E02444F8E6FC08E6FD1209988C3A8D3B0B
:0B0D9A000BBB00010AEB64044A70C2AE
:010DA500222B
:100A0D0078217C007D007BFF7A0D79E77E007F08E1
:100A1D001208D078297C007D007BFF7A0D79EF7E5E
:100A2D00007F0A1208D0E4F53375900F120DF912FC
:100A3D000F217BFF7A0D79C4120E83120F508F3365
:100A4D00E53324D0602F24F6503A24D66055245730
:100A5D0070737B007A007929120EE7EF4E700280D9
:100A6D005F7537007538007539217B007A0079295B
:100A7D00120D4A80557B007A007929120EE7EF4E50
:100A8D007002803CAF33120F0F753700753800754B
:100A9D003933753A00753B017B007A007929120CC8
:100AAD00C180227E00120ECC7B007A007929120EB5
:100ABD00E7EF4E700BFE120ECCAF33120F0F800A04
:100ACD00120E308005AF33120F5A7F647E00120E66
:040ADD00AC020A4815
:100C4100020A0DE493A3F8E493A34003F68001F2B2
:100C510008DFF48029E493A3F85407240CC8C333B4
:100C6100C4540F4420C8834004F456800146F6DF83
:100C7100E4800B0102040810204080900F62E47EA2
:100C8100019360BCA3FF543F30E509541FFEE49378
:100C9100A360010ECF54C025E060A840B8E493A33F
:100CA100FAE493A3F8E493A3C8C582C8CAC583CA6A
:100CB100F0A3C8C582C8CAC583CADFE9DEE780BE22
:010F6600008A
:10080000E709F608DFFA8046E709F208DFFA803EDA
:1008100088828C83E709F0A3DFFA8032E309F608C7
:10082000DFFA8078E309F208DFFA807088828C832F
:10083000E309F0A3DFFA806489828A83E0A3F608E3
:10084000DFFA805889828A83E0A3F208DFFA804CBD
:1008500080D280FA80C680D4806980F28033801094
:1008600080A680EA809A80A880DA80E280CA8033FD
:1008700089828A83ECFAE493A3C8C582C8CCC58375
:10088000CCF0A3C8C582C8CCC583CCDFE9DEE78045
:100890000D89828A83E493A3F608DFF9ECFAA9F0C4
:1008A000EDFB2289828A83ECFAE0A3C8C582C8CC1A
:1008B000C583CCF0A3C8C582C8CCC583CCDFEADE33
:1008C000E880DB89828A83E493A3F208DFF980CC95
:1008D00088F0EF60010E4E60C388F0ED2402B4048E
:1008E0000050B9F582EB2402B4040050AF23234535
:0608F00082239008507302
:1008F600BB010689828A83E0225002E722BBFE0200
:09090600E32289828A83E4932232
:10090F00BB010689828A83F0225002F722BBFE01C7
:02091F00F322C1
:10092100F8BB010DE58229F582E5833AF583E8F00C
:10093100225006E92582C8F622BBFE05E92582C8B8
:02094100F222A0
:10094300BC000BBE0029EF8DF084FFADF022E4CC98
:10095300F875F008EF2FFFEE33FEEC33FCEE9DEC61
:10096300984005FCEE9DFE0FD5F0E9E4CEFD22EDA7
:10097300F8F5F0EE8420D21CFEADF075F008EF2FF1
:10098300FFED33FD4007985006D5F0F222C398FDE2
:050993000FD5F0EA227F
:10099800C2D5EC30E709B2D5E4C39DFDE49CFCEE7A
:1009A80030E715B2D5E4C39FFFE49EFE120943C3A6
:1009B800E49DFDE49CFC800312094330D507C3E4A1
:0609C8009FFFE49EFE22E9
:100CC1008B348A358936E4F53CF53DD3E53B940018
:100CD100E53A64809480406AAB34AA35A936853DF3
:100CE10082853C831209CE600A053DE53D70E90528
:100CF1003C80E5AB37AA38A9391208F660340539CA
:100D0100E5397002053814F91208F6FFAB34AA353B
:100D1100A936053DE53DAC3C7002053C14F5828CDD
:100D210083EF120921E53B153B7002153A14453A50
:100D310070C1AB34AA35A936853D82853C83E41266
:090D41000921AB34AA35A93622C0
:100EE700E4FFFE1208F6600C0FEF70010E09E970BF
:050EF700F20A80EF2269
:100AE1008B4C8A4D894EAB4CAA4DA94E1208F6FF8C
:100AF100120EFC500D7401254EF54EE4354DF54DA9
:100B010080E4D202AB4CAA4DA94E1208F6FF642B29
:100B11006004EFB42D1BAB4C054EE54EAA4D70029F
:100B2100054D14F91208F6642D6003D38001C392B8
:100B310002E4F54FF550AB4CAA4DA94E1208F6FF51
:100B4100120F415036AB4CAA4DA94E1208F6FF3395
:100B510095E0FEEF24D0FBEE34FFFAAE4FAF507CB0
:100B6100007D0A1209FBEF2BF550EE3AF54F7401A7
:100B7100254EF54EE4354DF54D80BB300206AE4FA6
:0E0B8100AF508009C3E49550FFE4954FFE226B
:1009CE00BB010CE58229F582E5833AF583E02250DE
:1009DE0006E92582F8E622BBFE06E92582F8E22228
:0D09EE00E58229F582E5833AF583E4932242
:1009FB00EF8DF0A4A8F0CF8CF0A428CE8DF0A42E10
:020A0B00FE22C9
:0F0F4100EFC394304007EF943A50028001C3226F
:100EFC00EFC394094005EF940E4003BF2003D38049
:030F0C0001C322FC
:00000001FF
