:03000000020D1ED0
:0C0D1E00787FE4F6D8FD758142020D6577
:100E3300496E76616C696420696E7075740D0A0081
:100E4300496E76616C696420696E707574002A2A34
:100E53002A2A2A2A2A2A2A2A2A2A2A2A2A2A2A2AEF
:100E63002A2A2A2A2A2A0D0A00436F6C6C656374A6
:100E730020436173680054727920416761696E0091
:0A0E83000000000000000000000065
:100F7B00C101C100080807D001F400C800640810C3
:080F8B000014001E000A000022
:100E8D00E4F5A0C282C280C2817F38FE120F6912C2
:100E9D000F3C7F067E00120F69120F3C7F0C7E0007
:100EAD00120F69120F3C7F017E00120F69120F3C69
:070EBD007F807E00020F6937
:040F3C007F047E00B0
:100F4000E4FDFCC3ED9FEC9E5015E4FBFA0BBB00E7
:0F0F5000010ABA01F8BB7EF50DBD00010C80E46B
:010F5F00226F
:100C78008E188F198B1A8A1B891C7C277D101209E4
:100C880055EF243012090FAE18AF197C277D1012CA
:100C980009557E037FE8CFCDCFCECCCE120955EFD4
:100CA8002430AB1AAA1BA91C900001120921AE1806
:100CB800AF197C037DE81209557E007F64CFCDCF44
:100CC800CECCCE120955EF2430AB1AAA1BA91C9022
:100CD8000002120921AE18AF197C007D6412095573
:100CE8007E007F0ACFCDCFCECCCE120955EF24306F
:100CF800AB1AAA1BA91C900003120921AE18AF1940
:100D08007C007D0A120955ED2430AB1AAA1BA91CD8
:060D180090000402092115
:090F60007F01120F697F807E0001
:100F6900C280C281D2828FA07F0A7E00120F40C246
:020F79008222D2
:100FBC00D280C281D2828FA07F0A7E00120F40C2E3
:020FCC0082227F
:100EF2008B2C8A2D892EAB2CAA2DA92E1208F660D6
:100F020013052EE52E7002052D14F91208F6FF12B4
:050F12000FBC80E2228B
:100FCE00758920758DF3759850D28ED2ACD2AF2222
:081007008F993001FDC20122A6
:100F17008B2C8A2D892EAB2CAA2DA92E1208F660B0
:100F270013052EE52E7002052D14F91208F6FF128F
:050F3700100780E2221A
:090FFD00E4FF3000FDC200AF99D1
:0110060022C7
:03002300020FDEEB
:100FDE00309905C299D20132309804C298D20032AB
:100EC4007BFF7A0E7933120F177F017E00120F69B0
:100ED4007FC07E00120F697BFF7A0E7943120EF2F7
:0E0EE4007FD07E07120F407F017E00020F6953
:100BCB00120B1D8E328F33E4F53CF53DAB3DEB251F
:100BDB00E02408F8E6FC08E6FDAE32AF331209AAB2
:100BEB00EB25E02434F8A60608A607E53D25E0FF33
:100BFB00E53C33AB2FAA30A9318F82F5831209E084
:100C0B00FFAEF0E53D25E02434F8E6FC08E6D39F83
:100C1B00EE6480F8EC648098400EE53D25E02408F6
:100C2B00F8E6FC08E6FD8018AF3DEF25E02408F858
:100C3B00E6FC08E6FDEF25E02434F8E6FE08E6FFC7
:100C4B00120943C3E5339FF533E5329EF532053D7B
:100C5B00E53D7002053C6404453C6003020BD7E59F
:0C0C6B003345327004FE7F0122E4FEFFDE
:010C7700225A
:100A450078217C007D007BFF7A0E79837E007F0A0A
:100A55001208D0E4F52B75900F120E8D120FCE7B78
:100A6500FF7A0E7951120F17120FFD8F2BE52B24EC
:100A7500D0604624F6505124D6606C24576003029A
:100A85000B0E7B007A007921120F94EF4E70030252
:100A95000B09752F007530007531107B007A0079D0
:100AA50021120BCBEF4E7BFF60067A0E796C80042A
:100AB5007A0E7979120EF280557B007A007921122F
:100AC5000F94EF4E7002803CAF2B120FBC752F00B8
:100AD50075300075312B7532007533017B007A0056
:100AE5007921120DAA80227E00120F607B007A0008
:100AF5007921120F94EF4E700BFE120F60AF2B127F
:100B05000FBC800A120EC48005AF2B1210077F643C
:080B15007E00120F40020A6D80
:100D2A00020A45E493A3F8E493A34003F68001F290
:100D3A0008DFF48029E493A3F85407240CC8C333CA
:100D4A00C4540F4420C8834004F456800146F6DF99
:100D5A00E4800B0102040810204080900F7BE47E9F
:100D6A00019360BCA3FF543F30E509541FFEE4938E
:100D7A00A360010ECF54C025E060A840B8E493A355
:100D8A00FAE493A3F8E493A3C8C582C8CAC583CA80
:100D9A00F0A3C8C582C8CAC583CADFE9DEE780BE38
:010F9300005D
:10080000E709F608DFFA8046E709F208DFFA803EDA
:1008100088828C83E709F0A3DFFA8032E309F608C7
:10082000DFFA8078E309F208DFFA807088828C832F
:10083000E309F0A3DFFA806489828A83E0A3F608E3
:10084000DFFA805889828A83E0A3F208DFFA804CBD
:1008500080D280FA80C680D4806980F28033801094
:1008600080A680EA809A80A880DA80E280CA8033FD
:1008700089828A83ECFAE493A3C8C582C8CCC58375
:10088000CCF0A3C8C582C8CCC583CCDFE9DEE78045
:100890000D89828A83E493A3F608DFF9ECFAA9F0C4
:1008A000EDFB2289828A83ECFAE0A3C8C582C8CC1A
:1008B000C583CCF0A3C8C582C8CCC583CCDFEADE33
:1008C000E880DB89828A83E493A3F208DFF980CC95
:1008D00088F0EF60010E4E60C388F0ED2402B4048E
:1008E0000050B9F582EB2402B4040050AF23234535
:0608F00082239008507302
:1008F600BB010689828A83E0225002E722BBFE0200
:09090600E32289828A83E4932232
:10090F00BB010689828A83F0225002F722BBFE01C7
:02091F00F322C1
:10092100F8BB010DE58229F582E5833AF583E8F00C
:10093100225006E92582C8F622BBFE05E92582C8B8
:02094100F222A0
:10094300EF8DF0A4A8F0CF8CF0A428CE8DF0A42EC8
:02095300FE2282
:10095500BC000BBE0029EF8DF084FFADF022E4CC86
:10096500F875F008EF2FFFEE33FEEC33FCEE9DEC4F
:10097500984005FCEE9DFE0FD5F0E9E4CEFD22ED95
:10098500F8F5F0EE8420D21CFEADF075F008EF2FDF
:10099500FFED33FD4007985006D5F0F222C398FDD0
:0509A5000FD5F0EA226D
:1009AA00C2D5EC30E709B2D5E4C39DFDE49CFCEE68
:1009BA0030E715B2D5E4C39FFFE49EFE120955C382
:1009CA00E49DFDE49CFC800312095530D507C3E47D
:0609DA009FFFE49EFE22D7
:1009E000BB0110E58229F582E5833AF583E0F5F055
:1009F000A3E0225009E92582F886F008E622BBFE32
:100A00000AE92582F8E2F5F008E222E5832AF58377
:080A1000E993F5F0A3E993223C
:100DAA008B2C8A2D892EE4F534F535D3E53394005E
:100DBA00E53264809480406AAB2CAA2DA92E853531
:100DCA0082853483120A18600A0535E53570E9050B
:100DDA003480E5AB2FAA30A9311208F66034053108
:100DEA00E5317002053014F91208F6FFAB2CAA2D72
:100DFA00A92E0535E535AC347002053414F5828C1C
:100E0A0083EF120921E53315337002153214453286
:100E1A0070C1AB2CAA2DA92E853582853483E412A4
:090E2A000921AB2CAA2DA92E22EE
:100F9400E4FFFE1208F6600C0FEF70010E09E97011
:050FA400F20A80EF22BB
:100B1D008B3E8A3F8940AB3EAA3FA9401208F6FFA3
:100B2D00120FA9500D74012540F540E4353FF53FF6
:100B3D0080E4D202AB3EAA3FA9401208F6FF642B17
:100B4D006004EFB42D1BAB3E0540E540AA3F70029B
:100B5D00053F14F91208F6642D6003D38001C3928A
:100B6D0002E4F541F542AB3EAA3FA9401208F6FF5B
:100B7D00120FEE5036AB3EAA3FA9401208F6FF33D6
:100B8D0095E0FEEF24D0FBEE34FFFAAE41AF427C90
:100B9D00007D0A120943EF2BF542EE3AF54174013F
:100BAD002540F540E4353FF53F80BB300206AE41B0
:0E0BBD00AF428009C3E49542FFE49541FE2259
:100A1800BB010CE58229F582E5833AF583E0225093
:100A280006E92582F8E622BBFE06E92582F8E222DD
:0D0A3800E58229F582E5833AF583E49322F7
:0F0FEE00EFC394304007EF943A50028001C322C2
:100FA900EFC394094005EF940E4003BF2003D3809B
:030FB90001C3224F
:00000001FF
